:1000000033C0000041C000007CC000003DC00000C3
:100010003BC0000039C0000037C0000035C0000000
:1000200033C0000031C000002FC000002DC0000010
:100030002BC0000029C0000027C0000025C0000020
:1000400037C0000021C000001FC000001DC000001C
:100050001BC0000019C0000017C0000015C0000040
:1000600013C0000011C0000011241FBECFEFD8E064
:10007000DEBFCDBF21E0A0E0B1E001C01D92AD30F8
:10008000B207E1F7D0D016C1BBCF95B184B1806281
:100090008F7784B9892F806A85B90895569A519AC5
:1000A0008AB11AB80895599A08958BB11BB808956A
:1000B0001F920F920FB60F9211248F939F93AF93BD
:1000C000BF9380910401882399F080910901909158
:1000D0000A01A0910B01B0910C010196A11DB11D67
:1000E0008093090190930A01A0930B01B0930C0136
:1000F000BF91AF919F918F910F900FBE0F901F9066
:1001000018951F920F920FB60F9211242F933F93C1
:100110004F935F936F937F938F939F93AF93BF930F
:10012000EF93FF938091050190910601A091070143
:10013000B0910801892B8A2B8B2B09F44AC080913E
:100140000401811114C081E080930401109209011F
:1001500010920A0110920B0110920C0185B515BC8A
:1001600085B515BC85B5816085BD16BC32C01092C1
:10017000040126B58091090190910A01A0910B011B
:10018000B0910C01BA2FA92F982F8827BC01CD015F
:10019000620F711D811D911D2AE330E040E050E0A7
:1001A00067D02093000130930101409302015093E6
:1001B000030110920501109206011092070110929E
:1001C0000801253031054105510511F46CDF01C0EE
:1001D0006CDFFF91EF91BF91AF919F918F917F91D4
:1001E0006F915F914F913F912F910F900FBE0F90A4
:1001F0001F9018951BB88DE08A95F1F7000080EFED
:100200008BB981E090E0A0E0B0E08093050190938D
:100210000601A0930701B09308018AE18A95F1F7DE
:1002200000C01BB8089531DF39DF85B715BE85B72B
:10023000846085BFE99AEEE6F0E08081816080838A
:1002400078948091050190910601A0910701B091E9
:1002500008010097A105B105E1F72FEF86E791E0CE
:10026000215080409040E1F700C00000C3DFE9CF9B
:10027000A1E21A2EAA1BBB1BFD010DC0AA1FBB1FAA
:10028000EE1FFF1FA217B307E407F50720F0A21B1C
:10029000B30BE40BF50B661F771F881F991F1A9489
:1002A00069F760957095809590959B01AC01BD01B3
:0802B000CF010895F894FFCF7F
:00000001FF
