:1000000033C0000039C0000037C0000035C0000018
:1000100033C0000031C000002FC000002DC0000020
:100020002BC0000029C0000027C0000025C0000030
:1000300023C0000021C000001FC000001DC0000040
:100040001BC0000019C0000017C0000015C0000050
:1000500013C0000011C000000FC000000DC0000060
:100060000BC0000009C0000011241FBECFEFD8E074
:10007000DEBFCDBF27D035C0C3CF95B184B180627C
:100080008F7784B9892F806A85B9089510927C0092
:10009000EAE7F0E08081876880830895ECE7F0E08C
:1000A0009081907F8F70892B8083EAE7F0E08081D8
:1000B00080648083808186FDFDCF8091780090915F
:1000C00079000895DADF239A87B117B8DFDF80E07F
:1000D00090E0E4DF8831914010F02B9AF8CF2B9814
:0600E000F6CFF894FFCFFB
:00000001FF
